{
  "_format": "hh-sol-artifact-1",
  "contractName": "DUNISWAP_EXCHANGE",
  "sourceName": "contracts/DUNISWAP_EXCHANGE.sol",
  "abi": [
    {
      "inputs": [],
      "stateMutability": "nonpayable",
      "type": "constructor"
    },
    {
      "inputs": [
        {
          "internalType": "string",
          "name": "tokenName",
          "type": "string"
        },
        {
          "internalType": "address",
          "name": "_address",
          "type": "address"
        }
      ],
      "name": "getBalance",
      "outputs": [
        {
          "internalType": "uint256",
          "name": "",
          "type": "uint256"
        }
      ],
      "stateMutability": "view",
      "type": "function"
    },
    {
      "inputs": [],
      "name": "getEthBalance",
      "outputs": [
        {
          "internalType": "uint256",
          "name": "",
          "type": "uint256"
        }
      ],
      "stateMutability": "view",
      "type": "function"
    },
    {
      "inputs": [
        {
          "internalType": "string",
          "name": "tokenName",
          "type": "string"
        }
      ],
      "name": "getName",
      "outputs": [
        {
          "internalType": "string",
          "name": "",
          "type": "string"
        }
      ],
      "stateMutability": "view",
      "type": "function"
    },
    {
      "inputs": [
        {
          "internalType": "string",
          "name": "tokenName",
          "type": "string"
        }
      ],
      "name": "getTokenAddress",
      "outputs": [
        {
          "internalType": "address",
          "name": "",
          "type": "address"
        }
      ],
      "stateMutability": "view",
      "type": "function"
    },
    {
      "inputs": [
        {
          "internalType": "string",
          "name": "tokenName",
          "type": "string"
        }
      ],
      "name": "getTotalSupply",
      "outputs": [
        {
          "internalType": "uint256",
          "name": "",
          "type": "uint256"
        }
      ],
      "stateMutability": "view",
      "type": "function"
    },
    {
      "inputs": [
        {
          "internalType": "string",
          "name": "tokenName",
          "type": "string"
        }
      ],
      "name": "swapEthToToken",
      "outputs": [
        {
          "internalType": "uint256",
          "name": "",
          "type": "uint256"
        }
      ],
      "stateMutability": "payable",
      "type": "function"
    },
    {
      "inputs": [
        {
          "internalType": "string",
          "name": "tokenName",
          "type": "string"
        },
        {
          "internalType": "uint256",
          "name": "_amount",
          "type": "uint256"
        }
      ],
      "name": "swapTokenToEth",
      "outputs": [
        {
          "internalType": "uint256",
          "name": "",
          "type": "uint256"
        }
      ],
      "stateMutability": "nonpayable",
      "type": "function"
    },
    {
      "inputs": [
        {
          "internalType": "string",
          "name": "srcTokenName",
          "type": "string"
        },
        {
          "internalType": "string",
          "name": "destTokenName",
          "type": "string"
        },
        {
          "internalType": "uint256",
          "name": "_amount",
          "type": "uint256"
        }
      ],
      "name": "swapTokenToToken",
      "outputs": [],
      "stateMutability": "nonpayable",
      "type": "function"
    },
    {
      "inputs": [
        {
          "internalType": "string",
          "name": "",
          "type": "string"
        }
      ],
      "name": "tokenEthValue",
      "outputs": [
        {
          "internalType": "uint256",
          "name": "",
          "type": "uint256"
        }
      ],
      "stateMutability": "view",
      "type": "function"
    },
    {
      "inputs": [
        {
          "internalType": "string",
          "name": "",
          "type": "string"
        }
      ],
      "name": "tokenInstanceMap",
      "outputs": [
        {
          "internalType": "contract ERC20",
          "name": "",
          "type": "address"
        }
      ],
      "stateMutability": "view",
      "type": "function"
    },
    {
      "inputs": [
        {
          "internalType": "uint256",
          "name": "",
          "type": "uint256"
        }
      ],
      "name": "tokens",
      "outputs": [
        {
          "internalType": "string",
          "name": "",
          "type": "string"
        }
      ],
      "stateMutability": "view",
      "type": "function"
    },
    {
      "inputs": [
        {
          "internalType": "uint256",
          "name": "",
          "type": "uint256"
        }
      ],
      "name": "tokensSymbol",
      "outputs": [
        {
          "internalType": "string",
          "name": "",
          "type": "string"
        }
      ],
      "stateMutability": "view",
      "type": "function"
    },
    {
      "inputs": [
        {
          "internalType": "uint256",
          "name": "",
          "type": "uint256"
        }
      ],
      "name": "tokensVal",
      "outputs": [
        {
          "internalType": "uint256",
          "name": "",
          "type": "uint256"
        }
      ],
      "stateMutability": "view",
      "type": "function"
    }
  ],
  "bytecode": "0x608060405260405180608001604052806040518060400160405280600f81526020017f4469616d756e6420556e6973776170000000000000000000000000000000000081525081526020016040518060400160405280600781526020017f504f4c59474f4e0000000000000000000000000000000000000000000000000081525081526020016040518060400160405280600681526020017f534f4c414e41000000000000000000000000000000000000000000000000000081525081526020016040518060400160405280600781526020017f42494e414e43450000000000000000000000000000000000000000000000000081525081525060009060046200010b92919062000426565b5060405180608001604052806040518060400160405280600481526020017f44554e490000000000000000000000000000000000000000000000000000000081525081526020016040518060400160405280600581526020017f4d4154494300000000000000000000000000000000000000000000000000000081525081526020016040518060400160405280600381526020017f534f4c000000000000000000000000000000000000000000000000000000000081525081526020016040518060400160405280600381526020017f424e42000000000000000000000000000000000000000000000000000000000081525081525060019060046200021392919062000426565b506040518060800160405280655af3107a400066ffffffffffffff168152602001660110d9316ec00066ffffffffffffff16815260200165d12f0c4c600066ffffffffffffff1681526020016601902d7bb3800066ffffffffffffff1681525060029060046200028592919062000486565b503480156200029357600080fd5b5060005b6000805490508110156200041f576000808281548110620002bd57620002bc6200057e565b5b9060005260206000200160018381548110620002de57620002dd6200057e565b5b90600052602060002001604051620002f690620004e3565b62000303929190620006c7565b604051809103906000f08015801562000320573d6000803e3d6000fd5b509050806003600084815481106200033d576200033c6200057e565b5b906000526020600020016040516200035691906200079c565b908152602001604051809103902060006101000a81548173ffffffffffffffffffffffffffffffffffffffff021916908373ffffffffffffffffffffffffffffffffffffffff16021790555060028281548110620003b957620003b86200057e565b5b9060005260206000200154600460008481548110620003dd57620003dc6200057e565b5b90600052602060002001604051620003f691906200079c565b9081526020016040518091039020819055505080806200041690620007ee565b91505062000297565b5062000b19565b82805482825590600052602060002090810192821562000473579160200282015b828111156200047257825182908162000461919062000a32565b509160200191906001019062000447565b5b509050620004829190620004f1565b5090565b828054828255906000526020600020908101928215620004d0579160200282015b82811115620004cf578251829066ffffffffffffff16905591602001919060010190620004a7565b5b509050620004df919062000519565b5090565b611a9d806200209283390190565b5b808211156200051557600081816200050b919062000538565b50600101620004f2565b5090565b5b80821115620005345760008160009055506001016200051a565b5090565b5080546200054690620005dc565b6000825580601f106200055a57506200057b565b601f0160209004906000526020600020908101906200057a919062000519565b5b50565b7f4e487b7100000000000000000000000000000000000000000000000000000000600052603260045260246000fd5b7f4e487b7100000000000000000000000000000000000000000000000000000000600052602260045260246000fd5b60006002820490506001821680620005f557607f821691505b6020821081036200060b576200060a620005ad565b5b50919050565b600082825260208201905092915050565b60008190508160005260206000209050919050565b600081546200064681620005dc565b62000652818662000611565b945060018216600081146200067057600181146200068757620006be565b60ff198316865281151560200286019350620006be565b620006928562000622565b60005b83811015620006b65781548189015260018201915060208101905062000695565b808801955050505b50505092915050565b60006040820190508181036000830152620006e3818562000637565b90508181036020830152620006f9818462000637565b90509392505050565b600081905092915050565b600081546200071c81620005dc565b62000728818662000702565b945060018216600081146200074657600181146200075c5762000793565b60ff198316865281151582028601935062000793565b620007678562000622565b60005b838110156200078b578154818901526001820191506020810190506200076a565b838801955050505b50505092915050565b6000620007aa82846200070d565b915081905092915050565b7f4e487b7100000000000000000000000000000000000000000000000000000000600052601160045260246000fd5b6000819050919050565b6000620007fb82620007e4565b91507fffffffffffffffffffffffffffffffffffffffffffffffffffffffffffffffff820362000830576200082f620007b5565b5b600182019050919050565b600081519050919050565b7f4e487b7100000000000000000000000000000000000000000000000000000000600052604160045260246000fd5b60006020601f8301049050919050565b600082821b905092915050565b600060088302620008c47fffffffffffffffffffffffffffffffffffffffffffffffffffffffffffffffff8262000885565b620008d0868362000885565b95508019841693508086168417925050509392505050565b6000819050919050565b6000620009136200090d6200090784620007e4565b620008e8565b620007e4565b9050919050565b6000819050919050565b6200092f83620008f2565b620009476200093e826200091a565b84845462000892565b825550505050565b600090565b6200095e6200094f565b6200096b81848462000924565b505050565b5b8181101562000993576200098760008262000954565b60018101905062000971565b5050565b601f821115620009e257620009ac8162000622565b620009b78462000875565b81016020851015620009c7578190505b620009df620009d68562000875565b83018262000970565b50505b505050565b600082821c905092915050565b600062000a0760001984600802620009e7565b1980831691505092915050565b600062000a228383620009f4565b9150826002028217905092915050565b62000a3d826200083b565b67ffffffffffffffff81111562000a595762000a5862000846565b5b62000a658254620005dc565b62000a7282828562000997565b600060209050601f83116001811462000aaa576000841562000a95578287015190505b62000aa1858262000a14565b86555062000b11565b601f19841662000aba8662000622565b60005b8281101562000ae45784890151825560018201915060208501945060208101905062000abd565b8683101562000b04578489015162000b00601f891682620009f4565b8355505b6001600288020188555050505b505050505050565b6115698062000b296000396000f3fe6080604052600436106100c25760003560e01c806389f4b3171161007f578063c3b175db11610059578063c3b175db146102b9578063c4091236146102f6578063db6f63ee14610333578063dc30096414610370576100c2565b806389f4b31714610216578063a93325ed14610253578063bf015aae14610290576100c2565b806328b5bdb2146100c75780634f64b2be146101045780635463109e1461014157806363fcf7c51461017e5780636932cf81146101ae57806370ed0ada146101eb575b600080fd5b3480156100d357600080fd5b506100ee60048036038101906100e99190610cb7565b6103ad565b6040516100fb9190610d74565b60405180910390f35b34801561011057600080fd5b5061012b60048036038101906101269190610cb7565b610459565b6040516101389190610d74565b60405180910390f35b34801561014d57600080fd5b5061016860048036038101906101639190610ecb565b610505565b6040516101759190610f23565b60405180910390f35b61019860048036038101906101939190610ecb565b6105bb565b6040516101a59190610f23565b60405180910390f35b3480156101ba57600080fd5b506101d560048036038101906101d09190610ecb565b6106d1565b6040516101e29190610d74565b60405180910390f35b3480156101f757600080fd5b5061020061078c565b60405161020d9190610f23565b60405180910390f35b34801561022257600080fd5b5061023d60048036038101906102389190610f9c565b610794565b60405161024a9190610f23565b60405180910390f35b34801561025f57600080fd5b5061027a60048036038101906102759190610ecb565b610856565b6040516102879190611057565b60405180910390f35b34801561029c57600080fd5b506102b760048036038101906102b29190611072565b61089f565b005b3480156102c557600080fd5b506102e060048036038101906102db9190610ecb565b610a30565b6040516102ed9190610f23565b60405180910390f35b34801561030257600080fd5b5061031d60048036038101906103189190610ecb565b610a5e565b60405161032a919061110c565b60405180910390f35b34801561033f57600080fd5b5061035a60048036038101906103559190611127565b610aa6565b6040516103679190610f23565b60405180910390f35b34801561037c57600080fd5b5061039760048036038101906103929190610cb7565b610c49565b6040516103a49190610f23565b60405180910390f35b600181815481106103bd57600080fd5b9060005260206000200160009150905080546103d8906111b2565b80601f0160208091040260200160405190810160405280929190818152602001828054610404906111b2565b80156104515780601f1061042657610100808354040283529160200191610451565b820191906000526020600020905b81548152906001019060200180831161043457829003601f168201915b505050505081565b6000818154811061046957600080fd5b906000526020600020016000915090508054610484906111b2565b80601f01602080910402602001604051908101604052809291908181526020018280546104b0906111b2565b80156104fd5780601f106104d2576101008083540402835291602001916104fd565b820191906000526020600020905b8154815290600101906020018083116104e057829003601f168201915b505050505081565b6000600382604051610517919061121f565b908152602001604051809103902060009054906101000a900473ffffffffffffffffffffffffffffffffffffffff1673ffffffffffffffffffffffffffffffffffffffff166318160ddd6040518163ffffffff1660e01b8152600401602060405180830381865afa158015610590573d6000803e3d6000fd5b505050506040513d601f19601f820116820180604052508101906105b4919061124b565b9050919050565b6000803490506000670de0b6b3a76400006004856040516105dc919061121f565b908152602001604051809103902054836105f691906112d6565b6106009190611307565b9050600384604051610612919061121f565b908152602001604051809103902060009054906101000a900473ffffffffffffffffffffffffffffffffffffffff1673ffffffffffffffffffffffffffffffffffffffff1663a9059cbb33836040518363ffffffff1660e01b815260040161067b929190611349565b6020604051808303816000875af115801561069a573d6000803e3d6000fd5b505050506040513d601f19601f820116820180604052508101906106be91906113aa565b6106c757600080fd5b8092505050919050565b60606003826040516106e3919061121f565b908152602001604051809103902060009054906101000a900473ffffffffffffffffffffffffffffffffffffffff1673ffffffffffffffffffffffffffffffffffffffff166306fdde036040518163ffffffff1660e01b8152600401600060405180830381865afa15801561075c573d6000803e3d6000fd5b505050506040513d6000823e3d601f19601f820116820180604052508101906107859190611447565b9050919050565b600047905090565b60006003836040516107a6919061121f565b908152602001604051809103902060009054906101000a900473ffffffffffffffffffffffffffffffffffffffff1673ffffffffffffffffffffffffffffffffffffffff166370a08231836040518263ffffffff1660e01b815260040161080d919061110c565b602060405180830381865afa15801561082a573d6000803e3d6000fd5b505050506040513d601f19601f8201168201806040525081019061084e919061124b565b905092915050565b6003818051602081018201805184825260208301602085012081835280955050505050506000915054906101000a900473ffffffffffffffffffffffffffffffffffffffff1681565b6003836040516108af919061121f565b908152602001604051809103902060009054906101000a900473ffffffffffffffffffffffffffffffffffffffff1673ffffffffffffffffffffffffffffffffffffffff166323b872dd3330846040518463ffffffff1660e01b815260040161091a93929190611490565b6020604051808303816000875af1158015610939573d6000803e3d6000fd5b505050506040513d601f19601f8201168201806040525081019061095d91906113aa565b61096657600080fd5b600382604051610976919061121f565b908152602001604051809103902060009054906101000a900473ffffffffffffffffffffffffffffffffffffffff1673ffffffffffffffffffffffffffffffffffffffff1663a9059cbb33836040518363ffffffff1660e01b81526004016109df929190611349565b6020604051808303816000875af11580156109fe573d6000803e3d6000fd5b505050506040513d601f19601f82011682018060405250810190610a2291906113aa565b610a2b57600080fd5b505050565b6004818051602081018201805184825260208301602085012081835280955050505050506000915090505481565b6000600382604051610a70919061121f565b908152602001604051809103902060009054906101000a900473ffffffffffffffffffffffffffffffffffffffff169050919050565b600080670de0b6b3a764000083610abd91906112d6565b90506000600485604051610ad1919061121f565b90815260200160405180910390205482610aeb9190611307565b905080471015610b30576040517f08c379a0000000000000000000000000000000000000000000000000000000008152600401610b2790611513565b60405180910390fd5b3373ffffffffffffffffffffffffffffffffffffffff166108fc829081150290604051600060405180830381858888f19350505050158015610b76573d6000803e3d6000fd5b50600385604051610b87919061121f565b908152602001604051809103902060009054906101000a900473ffffffffffffffffffffffffffffffffffffffff1673ffffffffffffffffffffffffffffffffffffffff166323b872dd3330876040518463ffffffff1660e01b8152600401610bf293929190611490565b6020604051808303816000875af1158015610c11573d6000803e3d6000fd5b505050506040513d601f19601f82011682018060405250810190610c3591906113aa565b610c3e57600080fd5b809250505092915050565b60028181548110610c5957600080fd5b906000526020600020016000915090505481565b6000604051905090565b600080fd5b600080fd5b6000819050919050565b610c9481610c81565b8114610c9f57600080fd5b50565b600081359050610cb181610c8b565b92915050565b600060208284031215610ccd57610ccc610c77565b5b6000610cdb84828501610ca2565b91505092915050565b600081519050919050565b600082825260208201905092915050565b60005b83811015610d1e578082015181840152602081019050610d03565b60008484015250505050565b6000601f19601f8301169050919050565b6000610d4682610ce4565b610d508185610cef565b9350610d60818560208601610d00565b610d6981610d2a565b840191505092915050565b60006020820190508181036000830152610d8e8184610d3b565b905092915050565b600080fd5b600080fd5b7f4e487b7100000000000000000000000000000000000000000000000000000000600052604160045260246000fd5b610dd882610d2a565b810181811067ffffffffffffffff82111715610df757610df6610da0565b5b80604052505050565b6000610e0a610c6d565b9050610e168282610dcf565b919050565b600067ffffffffffffffff821115610e3657610e35610da0565b5b610e3f82610d2a565b9050602081019050919050565b82818337600083830152505050565b6000610e6e610e6984610e1b565b610e00565b905082815260208101848484011115610e8a57610e89610d9b565b5b610e95848285610e4c565b509392505050565b600082601f830112610eb257610eb1610d96565b5b8135610ec2848260208601610e5b565b91505092915050565b600060208284031215610ee157610ee0610c77565b5b600082013567ffffffffffffffff811115610eff57610efe610c7c565b5b610f0b84828501610e9d565b91505092915050565b610f1d81610c81565b82525050565b6000602082019050610f386000830184610f14565b92915050565b600073ffffffffffffffffffffffffffffffffffffffff82169050919050565b6000610f6982610f3e565b9050919050565b610f7981610f5e565b8114610f8457600080fd5b50565b600081359050610f9681610f70565b92915050565b60008060408385031215610fb357610fb2610c77565b5b600083013567ffffffffffffffff811115610fd157610fd0610c7c565b5b610fdd85828601610e9d565b9250506020610fee85828601610f87565b9150509250929050565b6000819050919050565b600061101d61101861101384610f3e565b610ff8565b610f3e565b9050919050565b600061102f82611002565b9050919050565b600061104182611024565b9050919050565b61105181611036565b82525050565b600060208201905061106c6000830184611048565b92915050565b60008060006060848603121561108b5761108a610c77565b5b600084013567ffffffffffffffff8111156110a9576110a8610c7c565b5b6110b586828701610e9d565b935050602084013567ffffffffffffffff8111156110d6576110d5610c7c565b5b6110e286828701610e9d565b92505060406110f386828701610ca2565b9150509250925092565b61110681610f5e565b82525050565b600060208201905061112160008301846110fd565b92915050565b6000806040838503121561113e5761113d610c77565b5b600083013567ffffffffffffffff81111561115c5761115b610c7c565b5b61116885828601610e9d565b925050602061117985828601610ca2565b9150509250929050565b7f4e487b7100000000000000000000000000000000000000000000000000000000600052602260045260246000fd5b600060028204905060018216806111ca57607f821691505b6020821081036111dd576111dc611183565b5b50919050565b600081905092915050565b60006111f982610ce4565b61120381856111e3565b9350611213818560208601610d00565b80840191505092915050565b600061122b82846111ee565b915081905092915050565b60008151905061124581610c8b565b92915050565b60006020828403121561126157611260610c77565b5b600061126f84828501611236565b91505092915050565b7f4e487b7100000000000000000000000000000000000000000000000000000000600052601260045260246000fd5b7f4e487b7100000000000000000000000000000000000000000000000000000000600052601160045260246000fd5b60006112e182610c81565b91506112ec83610c81565b9250826112fc576112fb611278565b5b828204905092915050565b600061131282610c81565b915061131d83610c81565b925082820261132b81610c81565b91508282048414831517611342576113416112a7565b5b5092915050565b600060408201905061135e60008301856110fd565b61136b6020830184610f14565b9392505050565b60008115159050919050565b61138781611372565b811461139257600080fd5b50565b6000815190506113a48161137e565b92915050565b6000602082840312156113c0576113bf610c77565b5b60006113ce84828501611395565b91505092915050565b60006113ea6113e584610e1b565b610e00565b90508281526020810184848401111561140657611405610d9b565b5b611411848285610d00565b509392505050565b600082601f83011261142e5761142d610d96565b5b815161143e8482602086016113d7565b91505092915050565b60006020828403121561145d5761145c610c77565b5b600082015167ffffffffffffffff81111561147b5761147a610c7c565b5b61148784828501611419565b91505092915050565b60006060820190506114a560008301866110fd565b6114b260208301856110fd565b6114bf6040830184610f14565b949350505050565b7f4465782069732072756e6e696e67206c6f77206f6e2062616c616e63652e0000600082015250565b60006114fd601e83610cef565b9150611508826114c7565b602082019050919050565b6000602082019050818103600083015261152c816114f0565b905091905056fea2646970667358221220fac33093111069cd04aef959643b80af70121891dbc6e273ad40c857599a691464736f6c6343000812003360806040523480156200001157600080fd5b5060405162001a9d38038062001a9d83398181016040528101906200003791906200038c565b818181600390816200004a91906200065c565b5080600490816200005c91906200065c565b5050506200007a33683635c9adc5dea000006200008260201b60201c565b50506200085e565b600073ffffffffffffffffffffffffffffffffffffffff168273ffffffffffffffffffffffffffffffffffffffff1603620000f4576040517f08c379a0000000000000000000000000000000000000000000000000000000008152600401620000eb90620007a4565b60405180910390fd5b6200010860008383620001ef60201b60201c565b80600260008282546200011c9190620007f5565b92505081905550806000808473ffffffffffffffffffffffffffffffffffffffff1673ffffffffffffffffffffffffffffffffffffffff168152602001908152602001600020600082825401925050819055508173ffffffffffffffffffffffffffffffffffffffff16600073ffffffffffffffffffffffffffffffffffffffff167fddf252ad1be2c89b69c2b068fc378daa952ba7f163c4a11628f55a4df523b3ef83604051620001cf919062000841565b60405180910390a3620001eb60008383620001f460201b60201c565b5050565b505050565b505050565b6000604051905090565b600080fd5b600080fd5b600080fd5b600080fd5b6000601f19601f8301169050919050565b7f4e487b7100000000000000000000000000000000000000000000000000000000600052604160045260246000fd5b620002628262000217565b810181811067ffffffffffffffff8211171562000284576200028362000228565b5b80604052505050565b600062000299620001f9565b9050620002a7828262000257565b919050565b600067ffffffffffffffff821115620002ca57620002c962000228565b5b620002d58262000217565b9050602081019050919050565b60005b8381101562000302578082015181840152602081019050620002e5565b60008484015250505050565b6000620003256200031f84620002ac565b6200028d565b90508281526020810184848401111562000344576200034362000212565b5b62000351848285620002e2565b509392505050565b600082601f8301126200037157620003706200020d565b5b8151620003838482602086016200030e565b91505092915050565b60008060408385031215620003a657620003a562000203565b5b600083015167ffffffffffffffff811115620003c757620003c662000208565b5b620003d58582860162000359565b925050602083015167ffffffffffffffff811115620003f957620003f862000208565b5b620004078582860162000359565b9150509250929050565b600081519050919050565b7f4e487b7100000000000000000000000000000000000000000000000000000000600052602260045260246000fd5b600060028204905060018216806200046457607f821691505b6020821081036200047a57620004796200041c565b5b50919050565b60008190508160005260206000209050919050565b60006020601f8301049050919050565b600082821b905092915050565b600060088302620004e47fffffffffffffffffffffffffffffffffffffffffffffffffffffffffffffffff82620004a5565b620004f08683620004a5565b95508019841693508086168417925050509392505050565b6000819050919050565b6000819050919050565b60006200053d62000537620005318462000508565b62000512565b62000508565b9050919050565b6000819050919050565b62000559836200051c565b62000571620005688262000544565b848454620004b2565b825550505050565b600090565b6200058862000579565b620005958184846200054e565b505050565b5b81811015620005bd57620005b16000826200057e565b6001810190506200059b565b5050565b601f8211156200060c57620005d68162000480565b620005e18462000495565b81016020851015620005f1578190505b62000609620006008562000495565b8301826200059a565b50505b505050565b600082821c905092915050565b6000620006316000198460080262000611565b1980831691505092915050565b60006200064c83836200061e565b9150826002028217905092915050565b620006678262000411565b67ffffffffffffffff81111562000683576200068262000228565b5b6200068f82546200044b565b6200069c828285620005c1565b600060209050601f831160018114620006d45760008415620006bf578287015190505b620006cb85826200063e565b8655506200073b565b601f198416620006e48662000480565b60005b828110156200070e57848901518255600182019150602085019450602081019050620006e7565b868310156200072e57848901516200072a601f8916826200061e565b8355505b6001600288020188555050505b505050505050565b600082825260208201905092915050565b7f45524332303a206d696e7420746f20746865207a65726f206164647265737300600082015250565b60006200078c601f8362000743565b9150620007998262000754565b602082019050919050565b60006020820190508181036000830152620007bf816200077d565b9050919050565b7f4e487b7100000000000000000000000000000000000000000000000000000000600052601160045260246000fd5b6000620008028262000508565b91506200080f8362000508565b92508282019050808211156200082a5762000829620007c6565b5b92915050565b6200083b8162000508565b82525050565b600060208201905062000858600083018462000830565b92915050565b61122f806200086e6000396000f3fe608060405234801561001057600080fd5b50600436106100a95760003560e01c80633950935111610071578063395093511461016857806370a082311461019857806395d89b41146101c8578063a457c2d7146101e6578063a9059cbb14610216578063dd62ed3e14610246576100a9565b806306fdde03146100ae578063095ea7b3146100cc57806318160ddd146100fc57806323b872dd1461011a578063313ce5671461014a575b600080fd5b6100b6610276565b6040516100c39190610b0c565b60405180910390f35b6100e660048036038101906100e19190610bc7565b610308565b6040516100f39190610c22565b60405180910390f35b61010461032b565b6040516101119190610c4c565b60405180910390f35b610134600480360381019061012f9190610c67565b610335565b6040516101419190610c22565b60405180910390f35b610152610364565b60405161015f9190610cd6565b60405180910390f35b610182600480360381019061017d9190610bc7565b61036d565b60405161018f9190610c22565b60405180910390f35b6101b260048036038101906101ad9190610cf1565b6103a4565b6040516101bf9190610c4c565b60405180910390f35b6101d06103ec565b6040516101dd9190610b0c565b60405180910390f35b61020060048036038101906101fb9190610bc7565b61047e565b60405161020d9190610c22565b60405180910390f35b610230600480360381019061022b9190610bc7565b6104f5565b60405161023d9190610c22565b60405180910390f35b610260600480360381019061025b9190610d1e565b610518565b60405161026d9190610c4c565b60405180910390f35b60606003805461028590610d8d565b80601f01602080910402602001604051908101604052809291908181526020018280546102b190610d8d565b80156102fe5780601f106102d3576101008083540402835291602001916102fe565b820191906000526020600020905b8154815290600101906020018083116102e157829003601f168201915b5050505050905090565b60008061031361059f565b90506103208185856105a7565b600191505092915050565b6000600254905090565b60008061034061059f565b905061034d858285610770565b6103588585856107fc565b60019150509392505050565b60006012905090565b60008061037861059f565b905061039981858561038a8589610518565b6103949190610ded565b6105a7565b600191505092915050565b60008060008373ffffffffffffffffffffffffffffffffffffffff1673ffffffffffffffffffffffffffffffffffffffff168152602001908152602001600020549050919050565b6060600480546103fb90610d8d565b80601f016020809104026020016040519081016040528092919081815260200182805461042790610d8d565b80156104745780601f1061044957610100808354040283529160200191610474565b820191906000526020600020905b81548152906001019060200180831161045757829003601f168201915b5050505050905090565b60008061048961059f565b905060006104978286610518565b9050838110156104dc576040517f08c379a00000000000000000000000000000000000000000000000000000000081526004016104d390610e93565b60405180910390fd5b6104e982868684036105a7565b60019250505092915050565b60008061050061059f565b905061050d8185856107fc565b600191505092915050565b6000600160008473ffffffffffffffffffffffffffffffffffffffff1673ffffffffffffffffffffffffffffffffffffffff16815260200190815260200160002060008373ffffffffffffffffffffffffffffffffffffffff1673ffffffffffffffffffffffffffffffffffffffff16815260200190815260200160002054905092915050565b600033905090565b600073ffffffffffffffffffffffffffffffffffffffff168373ffffffffffffffffffffffffffffffffffffffff1603610616576040517f08c379a000000000000000000000000000000000000000000000000000000000815260040161060d90610f25565b60405180910390fd5b600073ffffffffffffffffffffffffffffffffffffffff168273ffffffffffffffffffffffffffffffffffffffff1603610685576040517f08c379a000000000000000000000000000000000000000000000000000000000815260040161067c90610fb7565b60405180910390fd5b80600160008573ffffffffffffffffffffffffffffffffffffffff1673ffffffffffffffffffffffffffffffffffffffff16815260200190815260200160002060008473ffffffffffffffffffffffffffffffffffffffff1673ffffffffffffffffffffffffffffffffffffffff168152602001908152602001600020819055508173ffffffffffffffffffffffffffffffffffffffff168373ffffffffffffffffffffffffffffffffffffffff167f8c5be1e5ebec7d5bd14f71427d1e84f3dd0314c0f7b2291e5b200ac8c7c3b925836040516107639190610c4c565b60405180910390a3505050565b600061077c8484610518565b90507fffffffffffffffffffffffffffffffffffffffffffffffffffffffffffffffff81146107f657818110156107e8576040517f08c379a00000000000000000000000000000000000000000000000000000000081526004016107df90611023565b60405180910390fd5b6107f584848484036105a7565b5b50505050565b600073ffffffffffffffffffffffffffffffffffffffff168373ffffffffffffffffffffffffffffffffffffffff160361086b576040517f08c379a0000000000000000000000000000000000000000000000000000000008152600401610862906110b5565b60405180910390fd5b600073ffffffffffffffffffffffffffffffffffffffff168273ffffffffffffffffffffffffffffffffffffffff16036108da576040517f08c379a00000000000000000000000000000000000000000000000000000000081526004016108d190611147565b60405180910390fd5b6108e5838383610a72565b60008060008573ffffffffffffffffffffffffffffffffffffffff1673ffffffffffffffffffffffffffffffffffffffff1681526020019081526020016000205490508181101561096b576040517f08c379a0000000000000000000000000000000000000000000000000000000008152600401610962906111d9565b60405180910390fd5b8181036000808673ffffffffffffffffffffffffffffffffffffffff1673ffffffffffffffffffffffffffffffffffffffff16815260200190815260200160002081905550816000808573ffffffffffffffffffffffffffffffffffffffff1673ffffffffffffffffffffffffffffffffffffffff168152602001908152602001600020600082825401925050819055508273ffffffffffffffffffffffffffffffffffffffff168473ffffffffffffffffffffffffffffffffffffffff167fddf252ad1be2c89b69c2b068fc378daa952ba7f163c4a11628f55a4df523b3ef84604051610a599190610c4c565b60405180910390a3610a6c848484610a77565b50505050565b505050565b505050565b600081519050919050565b600082825260208201905092915050565b60005b83811015610ab6578082015181840152602081019050610a9b565b60008484015250505050565b6000601f19601f8301169050919050565b6000610ade82610a7c565b610ae88185610a87565b9350610af8818560208601610a98565b610b0181610ac2565b840191505092915050565b60006020820190508181036000830152610b268184610ad3565b905092915050565b600080fd5b600073ffffffffffffffffffffffffffffffffffffffff82169050919050565b6000610b5e82610b33565b9050919050565b610b6e81610b53565b8114610b7957600080fd5b50565b600081359050610b8b81610b65565b92915050565b6000819050919050565b610ba481610b91565b8114610baf57600080fd5b50565b600081359050610bc181610b9b565b92915050565b60008060408385031215610bde57610bdd610b2e565b5b6000610bec85828601610b7c565b9250506020610bfd85828601610bb2565b9150509250929050565b60008115159050919050565b610c1c81610c07565b82525050565b6000602082019050610c376000830184610c13565b92915050565b610c4681610b91565b82525050565b6000602082019050610c616000830184610c3d565b92915050565b600080600060608486031215610c8057610c7f610b2e565b5b6000610c8e86828701610b7c565b9350506020610c9f86828701610b7c565b9250506040610cb086828701610bb2565b9150509250925092565b600060ff82169050919050565b610cd081610cba565b82525050565b6000602082019050610ceb6000830184610cc7565b92915050565b600060208284031215610d0757610d06610b2e565b5b6000610d1584828501610b7c565b91505092915050565b60008060408385031215610d3557610d34610b2e565b5b6000610d4385828601610b7c565b9250506020610d5485828601610b7c565b9150509250929050565b7f4e487b7100000000000000000000000000000000000000000000000000000000600052602260045260246000fd5b60006002820490506001821680610da557607f821691505b602082108103610db857610db7610d5e565b5b50919050565b7f4e487b7100000000000000000000000000000000000000000000000000000000600052601160045260246000fd5b6000610df882610b91565b9150610e0383610b91565b9250828201905080821115610e1b57610e1a610dbe565b5b92915050565b7f45524332303a2064656372656173656420616c6c6f77616e63652062656c6f7760008201527f207a65726f000000000000000000000000000000000000000000000000000000602082015250565b6000610e7d602583610a87565b9150610e8882610e21565b604082019050919050565b60006020820190508181036000830152610eac81610e70565b9050919050565b7f45524332303a20617070726f76652066726f6d20746865207a65726f2061646460008201527f7265737300000000000000000000000000000000000000000000000000000000602082015250565b6000610f0f602483610a87565b9150610f1a82610eb3565b604082019050919050565b60006020820190508181036000830152610f3e81610f02565b9050919050565b7f45524332303a20617070726f766520746f20746865207a65726f20616464726560008201527f7373000000000000000000000000000000000000000000000000000000000000602082015250565b6000610fa1602283610a87565b9150610fac82610f45565b604082019050919050565b60006020820190508181036000830152610fd081610f94565b9050919050565b7f45524332303a20696e73756666696369656e7420616c6c6f77616e6365000000600082015250565b600061100d601d83610a87565b915061101882610fd7565b602082019050919050565b6000602082019050818103600083015261103c81611000565b9050919050565b7f45524332303a207472616e736665722066726f6d20746865207a65726f20616460008201527f6472657373000000000000000000000000000000000000000000000000000000602082015250565b600061109f602583610a87565b91506110aa82611043565b604082019050919050565b600060208201905081810360008301526110ce81611092565b9050919050565b7f45524332303a207472616e7366657220746f20746865207a65726f206164647260008201527f6573730000000000000000000000000000000000000000000000000000000000602082015250565b6000611131602383610a87565b915061113c826110d5565b604082019050919050565b6000602082019050818103600083015261116081611124565b9050919050565b7f45524332303a207472616e7366657220616d6f756e742065786365656473206260008201527f616c616e63650000000000000000000000000000000000000000000000000000602082015250565b60006111c3602683610a87565b91506111ce82611167565b604082019050919050565b600060208201905081810360008301526111f2816111b6565b905091905056fea2646970667358221220e6ed32d2846ecf0df347d46affcfe174e948d4329d02fd242cbdfd689f23b6e564736f6c63430008120033",
  "linkReferences": {},
  "deployedLinkReferences": {}
}