{
  "_format": "hh-sol-artifact-1",
  "contractName": "Uniswap",
  "sourceName": "contracts/Uniswap.sol",
  "abi": [
    {
      "inputs": [
        {
          "internalType": "address",
          "name": "addr",
          "type": "address"
        },
        {
          "internalType": "uint256",
          "name": "tokenVal",
          "type": "uint256"
        }
      ],
      "stateMutability": "nonpayable",
      "type": "constructor"
    },
    {
      "inputs": [],
      "name": "ethValue",
      "outputs": [
        {
          "internalType": "uint256",
          "name": "",
          "type": "uint256"
        }
      ],
      "stateMutability": "view",
      "type": "function"
    },
    {
      "inputs": [
        {
          "internalType": "string",
          "name": "tokenName",
          "type": "string"
        },
        {
          "internalType": "address",
          "name": "_address",
          "type": "address"
        }
      ],
      "name": "getBalance",
      "outputs": [
        {
          "internalType": "uint256",
          "name": "",
          "type": "uint256"
        }
      ],
      "stateMutability": "view",
      "type": "function"
    },
    {
      "inputs": [],
      "name": "getEthBalance",
      "outputs": [
        {
          "internalType": "uint256",
          "name": "",
          "type": "uint256"
        }
      ],
      "stateMutability": "view",
      "type": "function"
    },
    {
      "inputs": [
        {
          "internalType": "string",
          "name": "tokenName",
          "type": "string"
        }
      ],
      "name": "getName",
      "outputs": [
        {
          "internalType": "string",
          "name": "",
          "type": "string"
        }
      ],
      "stateMutability": "view",
      "type": "function"
    },
    {
      "inputs": [
        {
          "internalType": "string",
          "name": "tokenName",
          "type": "string"
        }
      ],
      "name": "getTokenAddress",
      "outputs": [
        {
          "internalType": "address",
          "name": "",
          "type": "address"
        }
      ],
      "stateMutability": "view",
      "type": "function"
    },
    {
      "inputs": [
        {
          "internalType": "string",
          "name": "tokenName",
          "type": "string"
        }
      ],
      "name": "getTotalSupply",
      "outputs": [
        {
          "internalType": "uint256",
          "name": "",
          "type": "uint256"
        }
      ],
      "stateMutability": "view",
      "type": "function"
    },
    {
      "inputs": [
        {
          "internalType": "string",
          "name": "tokenName",
          "type": "string"
        }
      ],
      "name": "swapEthToToken",
      "outputs": [
        {
          "internalType": "uint256",
          "name": "",
          "type": "uint256"
        }
      ],
      "stateMutability": "payable",
      "type": "function"
    },
    {
      "inputs": [
        {
          "internalType": "string",
          "name": "tokenName",
          "type": "string"
        },
        {
          "internalType": "uint256",
          "name": "_amount",
          "type": "uint256"
        }
      ],
      "name": "swapTokenToEth",
      "outputs": [
        {
          "internalType": "uint256",
          "name": "",
          "type": "uint256"
        }
      ],
      "stateMutability": "nonpayable",
      "type": "function"
    },
    {
      "inputs": [
        {
          "internalType": "string",
          "name": "srcTokenName",
          "type": "string"
        },
        {
          "internalType": "string",
          "name": "destTokenName",
          "type": "string"
        },
        {
          "internalType": "uint256",
          "name": "_amount",
          "type": "uint256"
        }
      ],
      "name": "swapTokenToToken",
      "outputs": [],
      "stateMutability": "nonpayable",
      "type": "function"
    }
  ],
  "bytecode": "0x60806040523480156200001157600080fd5b50604051620012813803806200128183398181016040528101906200003791906200012b565b816000806101000a81548173ffffffffffffffffffffffffffffffffffffffff021916908373ffffffffffffffffffffffffffffffffffffffff16021790555080600181905550505062000172565b600080fd5b600073ffffffffffffffffffffffffffffffffffffffff82169050919050565b6000620000b8826200008b565b9050919050565b620000ca81620000ab565b8114620000d657600080fd5b50565b600081519050620000ea81620000bf565b92915050565b6000819050919050565b6200010581620000f0565b81146200011157600080fd5b50565b6000815190506200012581620000fa565b92915050565b6000806040838503121562000145576200014462000086565b5b60006200015585828601620000d9565b9250506020620001688582860162000114565b9150509250929050565b6110ff80620001826000396000f3fe6080604052600436106100865760003560e01c806389f4b3171161005957806389f4b31714610160578063bf015aae1461019d578063c4091236146101c6578063c48dfed014610203578063db6f63ee1461022e57610086565b80635463109e1461008b57806363fcf7c5146100c85780636932cf81146100f857806370ed0ada14610135575b600080fd5b34801561009757600080fd5b506100b260048036038101906100ad91906109df565b61026b565b6040516100bf9190610a41565b60405180910390f35b6100e260048036038101906100dd91906109df565b610304565b6040516100ef9190610a41565b60405180910390f35b34801561010457600080fd5b5061011f600480360381019061011a91906109df565b6103e0565b60405161012c9190610adb565b60405180910390f35b34801561014157600080fd5b5061014a61047d565b6040516101579190610a41565b60405180910390f35b34801561016c57600080fd5b5061018760048036038101906101829190610b5b565b610485565b6040516101949190610a41565b60405180910390f35b3480156101a957600080fd5b506101c460048036038101906101bf9190610be3565b61052a565b005b3480156101d257600080fd5b506101ed60048036038101906101e891906109df565b6106eb565b6040516101fa9190610c7d565b60405180910390f35b34801561020f57600080fd5b50610218610716565b6040516102259190610a41565b60405180910390f35b34801561023a57600080fd5b5061025560048036038101906102509190610c98565b61071c565b6040516102629190610a41565b60405180910390f35b60008060009054906101000a900473ffffffffffffffffffffffffffffffffffffffff1673ffffffffffffffffffffffffffffffffffffffff166318160ddd6040518163ffffffff1660e01b8152600401602060405180830381865afa1580156102d9573d6000803e3d6000fd5b505050506040513d601f19601f820116820180604052508101906102fd9190610d09565b9050919050565b6000803490506000670de0b6b3a7640000600154836103239190610d94565b61032d9190610dc5565b905060008054906101000a900473ffffffffffffffffffffffffffffffffffffffff1673ffffffffffffffffffffffffffffffffffffffff1663a9059cbb33836040518363ffffffff1660e01b815260040161038a929190610e07565b6020604051808303816000875af11580156103a9573d6000803e3d6000fd5b505050506040513d601f19601f820116820180604052508101906103cd9190610e68565b6103d657600080fd5b8092505050919050565b606060008054906101000a900473ffffffffffffffffffffffffffffffffffffffff1673ffffffffffffffffffffffffffffffffffffffff166306fdde036040518163ffffffff1660e01b8152600401600060405180830381865afa15801561044d573d6000803e3d6000fd5b505050506040513d6000823e3d601f19601f820116820180604052508101906104769190610f05565b9050919050565b600047905090565b60008060009054906101000a900473ffffffffffffffffffffffffffffffffffffffff1673ffffffffffffffffffffffffffffffffffffffff166370a08231836040518263ffffffff1660e01b81526004016104e19190610c7d565b602060405180830381865afa1580156104fe573d6000803e3d6000fd5b505050506040513d601f19601f820116820180604052508101906105229190610d09565b905092915050565b60008054906101000a900473ffffffffffffffffffffffffffffffffffffffff1673ffffffffffffffffffffffffffffffffffffffff166323b872dd3330846040518463ffffffff1660e01b815260040161058793929190610f4e565b6020604051808303816000875af11580156105a6573d6000803e3d6000fd5b505050506040513d601f19601f820116820180604052508101906105ca9190610e68565b610609576040517f08c379a000000000000000000000000000000000000000000000000000000000815260040161060090610fd1565b60405180910390fd5b60008054906101000a900473ffffffffffffffffffffffffffffffffffffffff1673ffffffffffffffffffffffffffffffffffffffff1663a9059cbb33836040518363ffffffff1660e01b8152600401610664929190610e07565b6020604051808303816000875af1158015610683573d6000803e3d6000fd5b505050506040513d601f19601f820116820180604052508101906106a79190610e68565b6106e6576040517f08c379a00000000000000000000000000000000000000000000000000000000081526004016106dd9061103d565b60405180910390fd5b505050565b60008060009054906101000a900473ffffffffffffffffffffffffffffffffffffffff169050919050565b60015481565b600080670de0b6b3a7640000836107339190610d94565b90506000600154826107459190610dc5565b90508047101561078a576040517f08c379a0000000000000000000000000000000000000000000000000000000008152600401610781906110a9565b60405180910390fd5b3373ffffffffffffffffffffffffffffffffffffffff166108fc829081150290604051600060405180830381858888f193505050501580156107d0573d6000803e3d6000fd5b5060008054906101000a900473ffffffffffffffffffffffffffffffffffffffff1673ffffffffffffffffffffffffffffffffffffffff166323b872dd3330876040518463ffffffff1660e01b815260040161082e93929190610f4e565b6020604051808303816000875af115801561084d573d6000803e3d6000fd5b505050506040513d601f19601f820116820180604052508101906108719190610e68565b61087a57600080fd5b809250505092915050565b6000604051905090565b600080fd5b600080fd5b600080fd5b600080fd5b6000601f19601f8301169050919050565b7f4e487b7100000000000000000000000000000000000000000000000000000000600052604160045260246000fd5b6108ec826108a3565b810181811067ffffffffffffffff8211171561090b5761090a6108b4565b5b80604052505050565b600061091e610885565b905061092a82826108e3565b919050565b600067ffffffffffffffff82111561094a576109496108b4565b5b610953826108a3565b9050602081019050919050565b82818337600083830152505050565b600061098261097d8461092f565b610914565b90508281526020810184848401111561099e5761099d61089e565b5b6109a9848285610960565b509392505050565b600082601f8301126109c6576109c5610899565b5b81356109d684826020860161096f565b91505092915050565b6000602082840312156109f5576109f461088f565b5b600082013567ffffffffffffffff811115610a1357610a12610894565b5b610a1f848285016109b1565b91505092915050565b6000819050919050565b610a3b81610a28565b82525050565b6000602082019050610a566000830184610a32565b92915050565b600081519050919050565b600082825260208201905092915050565b60005b83811015610a96578082015181840152602081019050610a7b565b60008484015250505050565b6000610aad82610a5c565b610ab78185610a67565b9350610ac7818560208601610a78565b610ad0816108a3565b840191505092915050565b60006020820190508181036000830152610af58184610aa2565b905092915050565b600073ffffffffffffffffffffffffffffffffffffffff82169050919050565b6000610b2882610afd565b9050919050565b610b3881610b1d565b8114610b4357600080fd5b50565b600081359050610b5581610b2f565b92915050565b60008060408385031215610b7257610b7161088f565b5b600083013567ffffffffffffffff811115610b9057610b8f610894565b5b610b9c858286016109b1565b9250506020610bad85828601610b46565b9150509250929050565b610bc081610a28565b8114610bcb57600080fd5b50565b600081359050610bdd81610bb7565b92915050565b600080600060608486031215610bfc57610bfb61088f565b5b600084013567ffffffffffffffff811115610c1a57610c19610894565b5b610c26868287016109b1565b935050602084013567ffffffffffffffff811115610c4757610c46610894565b5b610c53868287016109b1565b9250506040610c6486828701610bce565b9150509250925092565b610c7781610b1d565b82525050565b6000602082019050610c926000830184610c6e565b92915050565b60008060408385031215610caf57610cae61088f565b5b600083013567ffffffffffffffff811115610ccd57610ccc610894565b5b610cd9858286016109b1565b9250506020610cea85828601610bce565b9150509250929050565b600081519050610d0381610bb7565b92915050565b600060208284031215610d1f57610d1e61088f565b5b6000610d2d84828501610cf4565b91505092915050565b7f4e487b7100000000000000000000000000000000000000000000000000000000600052601260045260246000fd5b7f4e487b7100000000000000000000000000000000000000000000000000000000600052601160045260246000fd5b6000610d9f82610a28565b9150610daa83610a28565b925082610dba57610db9610d36565b5b828204905092915050565b6000610dd082610a28565b9150610ddb83610a28565b9250828202610de981610a28565b91508282048414831517610e0057610dff610d65565b5b5092915050565b6000604082019050610e1c6000830185610c6e565b610e296020830184610a32565b9392505050565b60008115159050919050565b610e4581610e30565b8114610e5057600080fd5b50565b600081519050610e6281610e3c565b92915050565b600060208284031215610e7e57610e7d61088f565b5b6000610e8c84828501610e53565b91505092915050565b6000610ea8610ea38461092f565b610914565b905082815260208101848484011115610ec457610ec361089e565b5b610ecf848285610a78565b509392505050565b600082601f830112610eec57610eeb610899565b5b8151610efc848260208601610e95565b91505092915050565b600060208284031215610f1b57610f1a61088f565b5b600082015167ffffffffffffffff811115610f3957610f38610894565b5b610f4584828501610ed7565b91505092915050565b6000606082019050610f636000830186610c6e565b610f706020830185610c6e565b610f7d6040830184610a32565b949350505050565b7f5472616e7366657246726f6d206661696c65642e000000000000000000000000600082015250565b6000610fbb601483610a67565b9150610fc682610f85565b602082019050919050565b60006020820190508181036000830152610fea81610fae565b9050919050565b7f5472616e73666572206661696c65642e00000000000000000000000000000000600082015250565b6000611027601083610a67565b915061103282610ff1565b602082019050919050565b600060208201905081810360008301526110568161101a565b9050919050565b7f496e737566666963656e742062616c616e63652e000000000000000000000000600082015250565b6000611093601483610a67565b915061109e8261105d565b602082019050919050565b600060208201905081810360008301526110c281611086565b905091905056fea26469706673582212200c5a9babb9dd472af58e09b5bf85e690d37359f12a7b2912b7c2b6b77877e0a164736f6c63430008120033",
  "linkReferences": {},
  "deployedLinkReferences": {}
}